:020000040800F2
:10000000B83F0020010100086B360008FB2E0008F5
:1000100069360008A90C00085D40000800000000D7
:10002000000000000000000000000000353B000858
:10003000E30C00080000000075370008C93C000808
:100040001B0100081B0100081B0100081B01000820
:100050001B0100081B0100081B0100081B01000810
:100060001B0100081B0100081B010008AD0C000863
:100070001B0100081B0100081B0100081B010008F0
:100080001B0100081B0100081B0100081B010008E0
:100090001B0100081B0100081B0100081B010008D0
:1000A0001B0100081B0100081B0100081B010008C0
:1000B000A53D00081B0100081B0100081B010008EA
:1000C0001B0100081B0100081B0100081B010008A0
:1000D0001B0100081B0100081B0100081B01000890
:1000E0001B0100081B0100081B010008DFF80CD0F1
:1000F00000F0F6FC004800476D440008B83F0020BF
:100100000648804706480047FEE7FEE7FEE7FEE7B1
:10011000FEE7FEE7FEE7FEE7FEE7FEE75D3D0008DF
:10012000ED0000082DE9F04F4FF0000C4FF00003F8
:1001300001EB1C6EBEF90250BEF900400EF5807E48
:10014000BEF90290BEF900800EF5807EBEF9027005
:10015000BEF900600EF5807EBEF902B0BEF900A0C7
:100160000EF5807ED044D944A8EB4A0AA9EB4B0B8C
:100170004FEAA4044FEAA50504EBA60405EBA70586
:10018000A4EB6606A5EB670704EBA80405EBA9053D
:10019000A4EB6808A5EB690906EBAB06A7EBAA0779
:1001A000A6EB6B0B07EB6A0A458020F8044B4780EF
:1001B00020F8046BA0F8029020F8048BA0F802A0AD
:1001C00020F804BB03F1010393FAA3FC402BAFD149
:1001D000A0EB82014FF0100312090FF2361000F16C
:1001E000000006B403EB430C6144A2F5803202EB3D
:1001F0008332B1F90250B1F90040A1EB0301B0F92B
:1002000002B0B0F900A000F10400A5EB040E0EFB53
:100210000BFC0AEB4B0E05FB0ACB04FB0ECAB1F933
:100220000250B1F90040A1EB0301B0F90290B0F91E
:10023000008000F10400A5EB040E0EFB09FC08EBA6
:10024000490E05FB08C904FB0EC8B1F90250B1F90B
:100250000040A1EB0301B0F90270B0F9006000F1B9
:100260000400A5EB040E0EFB07FC06EB470E05FB96
:1002700006C704FB0EC6B1F90250B1F9004001F106
:100280000001D044D944A8EB4A0AA9EB4B0B4FEA32
:10029000A4044FEAA50504EB264405EB2745A4EB8F
:1002A000E636A5EBE73704EB284405EB2945A4EB3C
:1002B000E838A5EBE93906EB2B46A7EB2A47A6EB76
:1002C000EB3B07EBEA3A4D800C8019444F800E80DF
:1002D0001944A1F80290A1F800801944A1F802A0E5
:1002E00021F804BBB2F5803283DA03EB430C61449E
:1002F000A2F101025FEA024E18BFA0EB0C007FF4EE
:1003000076AF06BC4FEA830392087FF46AAFBDE87C
:10031000F08F0040000000400000004000005DDD64
:10032000213BA3227E180000412D7EA5412D000017
:10033000412D00C000405DDD82E75DDD213B7EA5F3
:10034000412D004000000040000000400000AA2AAB
:1003500094126B39460649327C0CA8118E2349321F
:100360007C0CA3227E1821F77931AA2A9412A811B5
:100370008E235DDD213BA3227E180000412D95C612
:10038000B13F461A2B1E58EE3735BEB4C53EA811F4
:100390008E235DDD213B63A97138DF089A28B7CD34
:1003A000C53E7EA5412D0000412D00C0004063A93F
:1003B0002B1E21F77931BEB4C53EBEB47C0C58EE7D
:1003C000373561AC213B95C6BAF9BAE571383BA720
:1003D00037355DDD82E75DDD213B7EA5412D21F7CF
:1003E00066D756D53F3D3BA78E23A811C9CAB7CDC6
:1003F000C53E61AC7E18AA2AC1C295C6B13FBEB443
:100400007C0C0040000000400000004000001E3B4B
:10041000B504693E9201C83C2403EB356409C83C2D
:1004200024036B3946066C30060E1E3BB504EB35D3
:100430006409AA2A94126B39460649327C0CAE2410
:100440000917AF37D607882E8D0F7E1E5D1BEB3543
:100450006409AA2A941224188C1F1E34F10AB326A8
:100460009015A8118E2349327C0CA3227E18140B00
:1004700060276C30060E7E1E5D1B7104FB2A882EE1
:100480008D0F461A2B1EC7FD5A2E9D2C1211FE15DC
:10049000E72021F77931AA2A9412A8118E2387F038
:1004A0005334B2281314480D202602EAE536B32649
:1004B0009015DF089A289CE32B39AE2409177104A4
:1004C000FB2A5DDD213BA3227E180000412D4ED783
:1004D000C53C9320EF198FFB6C2F78D1153E7E1E03
:1004E0005D1B21F77931E2CB0F3F641CC61CB8F2CB
:1004F000683395C6B13F461A2B1E58EE373597C163
:10050000FB3F24188C1F02EAE536F0BCEC3FFE15D9
:10051000E720BAE57138A6B8853FD5133D2282E1C0
:10052000DB39BEB4C53EA8118E235DDD213B40B151
:10053000AF3D790FDA244DD9423C2EAE423C480DF6
:10054000202656D53F3D8EAB823A140B602778D1DA
:10055000153E63A97138DF089A28B7CDC53EB1A70B
:100560001236A906CE2915CA4F3F78A66833710402
:10057000FB2A95C6B13FBCA576303902212C38C381
:10058000EC3F7EA5412D0000412D00C00040BCA5E0
:10059000CE29C7FD5A2EF0BCEC3F78A620268FFB53
:1005A0006C2F09BAB13FB1A73D2257F976304DB74C
:1005B0004F3F63A92B1E21F77931BEB4C53E8EABE8
:1005C000EF19ECF474325EB2153E2EAE9015B8F20F
:1005D00068332DB03F3D40B1121187F053342EAE39
:1005E000423CBEB47C0C58EE373561AC213BA6B81A
:1005F000D6072BEC1236C8AADB39F0BC240302EA7A
:10060000E53663A9713897C16EFEDCE7B03734A8D0
:10061000E53695C6BAF9BAE571383BA73735E2CB6E
:100620000FF59CE32B3978A6683378D173F082E11B
:10063000DB39EDA579314ED7EDEB6DDF823A99A527
:100640006C2F5DDD82E75DDD213B7EA5412D9CE3C6
:100650003AE352DBB63B99A5FB2A02EA19DF4DD9F2
:10066000423CEDA59A2887F026DB4ED7C53C78A6FC
:10067000202621F766D756D53F3D3BA78E23C7FDE1
:10068000DFD363D3AF3D34A8E720710494D078D191
:10069000153E63A92B1E140B8CCD94CF723EC8AAB5
:1006A0005D1BA811C9CAB7CDC53E61AC7E18241820
:1006B00050C8E2CB0F3F2EAE90157E1E25C615CA40
:1006C0004F3F2DB09412AE244AC451C8853F5EB24C
:1006D0008D0FAA2AC1C295C6B13FBEB47C0C6C3046
:1006E0008EC1E2C4D43F4DB76409EB35B1C038C305
:1006F000EC3F09BA46061E3B2CC097C1FB3FF0BC3D
:100700002403202A04DB203A21FA02F0002170475A
:1007100021FA02F3D040C2F1200291400843194669
:100720007047F0B480EA0102D40F4200B2EB410FEF
:1007300002D20246084611464A0042D0C30DDDB23D
:10074000C1F3C752AD1A202D35DAC1F3160141F4B9
:10075000000204B15242C5F1200602FA06F12A4114
:100760001044B3EBD05F23D0C4B1012DA0EBC35034
:1007700009DCF0BC4FF0004202EAC352DBB200F5E4
:10078000000000F0D0B8400000F1807000EBC350D2
:10079000A0F1807040EAD170490009E0490841EABF
:1007A000C071A0EBC35000F50000400800EBC3503F
:1007B000F0BC00F0AFB86142012202EB4101001B26
:1007C000F6E7F0BC704781F00041AAE780F00040F6
:1007D000A7E780EA010210B502F00043400022D0F2
:1007E0004A001FD0010E01EB1261C0F35600C2F3A4
:1007F000560240F4000042F40002A0FB0220000474
:100800007F39140400D0401C50EA124001D440004B
:10081000491EC2B20C0604EBD010401C4008802ACE
:1008200002D003E0002010BD20F00100002900DA12
:100830000020184310BD420005D0C0F3C7525242F9
:10084000914201DC0020704700EBC150704770B549
:1008500021F0004303430CD0C1F30A550024D5EB2B
:10086000040564EB0403D617AD1AB34102DB002084
:10087000014670BD201841EB025170BDC10F80EAE6
:10088000E0700844CA079623002100F04CB820F01D
:100890000040C10DC0F3160040F400007F2901DACA
:1008A00000207047962903DCC1F19601C8407047CB
:1008B00096398840704700F0004230F000400AD07E
:1008C000C10D01F56071C0F3160042EA0151C20882
:1008D00040071143704700200146704701F0004374
:1008E00030B421F0004150EA010206D00A0DA2F511
:1008F0006072C1F31301002A02DC30BC0020704793
:10090000440F44EAC104C100E01830BC00EBC250FF
:10091000AFF300800029A8BF7047401C490008BF02
:1009200020F00100704710B4B0FA80FC00FA0CF01F
:1009300050EA010404BF10BC704749B1CCF1200457
:1009400021FA04F411FA0CF118BF012121430843E4
:10095000A3EB0C01CB1D4FEA00614FEA102042BF10
:10096000002010BC704700EBC35010440029A4BF06
:1009700010BC7047401C490008BF20F0010010BCAB
:10098000704710B5141E73F1000408DA401C41F1E1
:10099000000192185B411A4301D120F0010010BD03
:1009A0002DE9F04D92469B4611B1B1FA81F202E079
:1009B000B0FA80F22032904600F0A4F804460F46C8
:1009C00040EA0A0041EA0B0153465A46084313D055
:1009D000114653EA010019D0C8F140025046FFF712
:1009E00090FE05460E4650465946424600F08AF8AB
:1009F000084305D0012004E020463946BDE8F08DCB
:100A00000020054346EAE0762C4337430A98630505
:100A1000E40AA0EB08000022FD0A44EA47540A3029
:100A200002D500200146E9E7010510196941DDE919
:100A3000084500196941BDE8F04DA2E72DE9F04DE8
:100A400000231A461B1A8A4103DB00200146BDE839
:100A5000F08DC1F30A52C1F3130141F480154FF038
:100A6000000BD10702D100186D41521E0027044629
:100A700040F2FF11384601EB620A3E4680460246CC
:100A800000204FF48011FFF73CFEC2197141BB18E2
:100A900046EB0100B4EB030C75EB000C04D3E41A35
:100AA00065EB000517460E46241908F101006D415B
:100AB00080463428E3DDF91946EB0600091BA841FE
:100AC00003D24FF0FF32134601E0002213461BEB26
:100AD000070046EB0A51BDE8F04DFFF752BF00009A
:100AE000064C074D06E0E06840F0010394E807007B
:100AF00098471034AC42F6D3FFF7FCFA00500008D8
:100B000020500008202A04DB203A00FA02F10020DD
:100B100070479140C2F1200320FA03F3194390403B
:100B2000704770B58C1810F8015B15F0070301D100
:100B300010F8013B2A1106D110F8012B03E010F840
:100B4000016B01F8016B5B1EF9D12B0705D4002363
:100B5000521E0DD401F8013BFAE710F8013BCB1A05
:100B6000921C03E013F8015B01F8015B521EF9D5FA
:100B7000A142D8D3002070BD70B5044600688168DA
:100B8000C943C9071CD1816821F00101816001F0CE
:100B90002FFA05460FE000BF01F02AFA401B022899
:100BA00009D9A06A40F01000A062E06A40F001009C
:100BB000E062012070BD20688068C043C007EBD0B0
:100BC000002070BD10B50146406A826A12F0500FD5
:100BD00005D0006A026BBDE8104008461047816AE4
:100BE00041F40071816201688968C1F342410729BB
:100BF0000CD1C16851B9816A21F480718162816A26
:100C0000C90403D4816A41F00101816200F046FE0B
:100C100010BD10B5406A816A41F040018162C16A2D
:100C200041F00401C16200F044FE10BD10B5406AFD
:100C300000F03EFE10BD0000F8B500260446009608
:100C400000688168C943C90728D0816841F0010163
:100C50008160134813490068B0FBF1F000E0401ECA
:100C600000900028FBD101F0C3F9054611E000BF58
:100C700001F0BEF9401B02280BD9A06A40F0100019
:100C8000A062E06A40F00100E06284F82460012084
:100C9000F8BD20688068C043C007E9D10020F8BDD6
:100CA0006009002040420F00FEE70000014800F00C
:100CB00099BF0000A03A002030B590F840500124C0
:100CC000AC40C56B6C60046863604368102B0368BC
:100CD00003D099600068C26030BD9A600068C1604E
:100CE00030BD704738B50024012002F04DFB00F004
:100CF0004BFA00210F2000F0C9FC402080230A4A53
:100D00000021009000F080FB00F026FA07493F2008
:100D10000855641CA4B2FF2CFAD9BDE838404FF442
:100D20007A7001F073B80000C845000870390020DF
:100D30000D4A10B5002002F5806300BF32F8201084
:100D4000A1F61F41090443F82010401C80B2FF287F
:100D5000F4D906494FF4807201F58060FFF7E2F99B
:100D6000BDE8104000F0CEBC70290020702D00209E
:100D700010B54FF480720449044800F06FFEBDE8DE
:100D80001040034801F082BE70290020703A002014
:100D9000383B002010B5044800F0E6FEBDE81040E6
:100DA000024801F080BE0000703A0020383B00206D
:100DB00010B500F0CFF90AA200213C2000F040FC61
:100DC0000BA21021002000F03BFC0B480223102155
:100DD0008278202000F060FCBDE8104000F0BCB933
:100DE000446174652053657474696E670000000087
:100DF00056616C3A000000002000002005490020E8
:100E000008704870891E0A78034902B101200870F1
:100E1000FFF7AEBF03000020160000201CB50E49EE
:100E2000002008704870891E0A780C4972B10120B0
:100E300008700B4882784178CDE9001203780948A0
:100E400082784178808802F001FE1CBD0870BDE800
:100E50001C40FFF78DBF000003000020160000209B
:100E6000190000202000002010B500F073F90AA23C
:100E700000213C2000F0E4FB0CA21021002000F037
:100E8000DFFB0C48032310210278202000F004FC33
:100E9000BDE8104000F060B946616C5F7370656535
:100EA000642053657474696E6700000056616C3A83
:100EB000000000000E00002010B500F04BF90AA25F
:100EC00000213C2000F0BCFB0BA21021002000F010
:100ED000B7FB0B48022310210278202000F0DCFB36
:100EE000BDE8104000F038B9486F75727320536543
:100EF0007474696E6700000056616C3A000000006F
:100F00001900002010B500F025F90AA200213C20AC
:100F100000F096FB0BA21021002000F091FB0B4883
:100F2000022310214278202000F0B6FBBDE81040DB
:100F300000F012B94D696E75746573205365747451
:100F4000696E670056616C3A0000000019000020CD
:100F500010B500F0FFF80CA20021342000F070FB67
:100F60000DA21021002000F06BFB0D48007808B1A5
:100F70000CA200E00DA21021202000F061FBBDE8D2
:100F8000104000F0E9B800004D6F646520536574AF
:100F900074696E670000000056616C3A0000000042
:100FA0000F0000204155544F000000004D0000008C
:100FB00010B500F0CFF80AA200213C2000F040FB61
:100FC0000BA21021002000F03BFB0B480223102154
:100FD0004278202000F060FBBDE8104000F0BCB873
:100FE0004D6F6E74682053657474696E67000000FD
:100FF00056616C3A000000002000002010B500F09F
:10100000A9F80AA200213C2000F01AFB0BA2102133
:10101000002000F015FB0B480223102182782020CD
:1010200000F03AFBBDE8104000F096B85365636FDE
:101030006E64732053657474696E670056616C3A10
:10104000000000001900002010B500F083F80CA289
:101050000021342000F0F4FA0CA21021002000F04E
:10106000EFFA0C48007808B10BA200E00CA21021A6
:10107000202000F0E5FABDE8104000F06DB8000057
:1010800053686F77204D6F646500000056616C3ABD
:10109000000000000100002054696D6500000000A0
:1010A0004646540010B500F055F80CA200213C2033
:1010B00000F0C6FA0EA21021002000F0C1FA0E487E
:1010C000007808B10DA200E00EA21021202000F04F
:1010D000B7FABDE8104000F03FB8000053686F77E2
:1010E0004D6F64652053657474696E67000000007D
:1010F00056616C3A000000000100002054696D65E3
:10110000000000004646540010B500F023F80AA283
:1011100000213C2000F094FA0BA21021002000F0E6
:101120008FFA0B48042310218288202000F0B4FAA3
:10113000BDE8104000F010B8596561722053657425
:1011400074696E670000000056616C3A0000000090
:101150002000002002F09ABA02F0D6BA2DE9F04140
:1011600015461E460F460446A84202D9D0B225466F
:10117000044632463946204600F061F9641CA4B2A8
:10118000A542F6D2BDE8F08101F0B8BE2DE9FF5FBF
:1011900005460C4603989346511B021B4FF0FF3641
:1011A000002902DD4FF0010701E005DA3746002A89
:1011B0000BDD4FF0010613E00E9BC2B204B0E1B2AA
:1011C000A8B2BDE8F05F00F04CBA09DB0E9B04B09A
:1011D0001FFA8BF2E1B2A8B2BDE8F05FFFF7BEBF25
:1011E000794372434FEA41094FEA4208914214DBC6
:1011F000A8EB010AA8EB09090CE0E1B2A8B20E9A2B
:1012000000F01DF93D44BAF1000F01DAC24401E0DB
:10121000CA4434445D45F0D114E0A9EB020AA9EBBD
:1012200008080CE0E1B2A8B20E9A00F008F93444C4
:10123000BAF1000F01DACA4401E0C2443D44039808
:101240008442EFD10E9A04B0E1B2A8B2BDE8F05FDB
:1012500000F0F5B82DE9FC5F05460C9898469146DC
:101260000C4600286FD0322800D932204608871B50
:10127000A9EB05037F1EA8EB04024FF0FF30002B03
:1012800002DD4FF0010B01E005DA8346002A12DD92
:101290004FF0010010E0AE1B00D5002605EB07055E
:1012A00008F0FF02E1B2B0B20D9B00F0DAF9AE42F5
:1012B00072DA761CF4E70BDA82460BFB03F150433B
:1012C0004A00019242000092814239DB501A1FE02D
:1012D000A61B00D500263C441FFA89F2F1B2A8B241
:1012E0000D9BFFF73BFFA64256DA761CF4E7002879
:1012F00000DA0020E119CAB2C1B2A8B20D9B00F019
:10130000B0F95D44B8F1000F04DA009908EB010070
:10131000804604E0DDE90001411A884454444D450B
:10132000A4EB0600E3D1002800DA0020E119CAB2DC
:101330000D9BC1B202B0A8B2BDE8F05F00F091B958
:101340000199081A10E027E0002800DA0020E919C6
:101350008AB2E1B280B20D9BFFF700FF5444B9F1AD
:10136000000F03DA01984844814604E0DDE90010EB
:10137000411A89445D444445A5EB0600E4D10028A8
:1013800000DA0020E9190D9B8AB202B0E1B2BDE893
:10139000F05F80B2FFF7E2BEBDE8FC9F2DE9F05F91
:1013A0001F4690460E460546FF281ED8402E1CD2EA
:1013B0000024DFF848A0DFF848B01BE0600701D147
:1013C00018F8019B04F007011AF8010010EA090F50
:1013D00002D19BF8002001E00A480278F1B2A8B2DD
:1013E00000F02DF86D1CFF2D02D90020BDE8F09F04
:1013F000641CE4B2BC42E1D30120F7E7F84F0008D7
:1014000065090020640900202DE9F0471E461446B6
:101410000F4681460025DDF820800CE03346224649
:1014200039464846FFF7BAFF7F1C04EBD604700725
:1014300000D0641C6D1C4545F0D3BDE8F08702F078
:1014400045B900002DE9F8430E00044691461DD031
:10145000012E04D114F8010B2178FFF7F0FF14F8E6
:10146000010B012714F8011B0EE000BF14F8018BDB
:1014700014F8015B42462B46CDF80090FFF786FE3C
:101480007F1C40462946FFB2B742EFD3BDE8F88340
:101490002DE9F05F0F460446F82801D8382F02D90D
:1014A0000020BDE8F09FA2F12000602800D3202298
:1014B000203A1449D0B2DFF85090002601EBC00A60
:1014C000DFF848B01AF80680002500BF19F80500BB
:1014D00010EA080F02D19BF8002001E00C480278C6
:1014E000F9B2A0B2FFF7ABFF6D1CEDB2641C062D84
:1014F000ECD3761CF6B2A41F7F1C082EE0D301208B
:10150000CFE70000F8490008F84F000865090020FF
:10151000640900202DE9F05F0F460446F82801D841
:10152000382F02D90020BDE8F09FA2F120006028EA
:1015300000D32022203A1449D0B2DFF85090002680
:1015400001EBC00ADFF848B01AF80680002500BF9A
:1015500019F8050010EA080F02D19BF8002001E0FD
:101560000C480278F9B2A0B2FFF769FF6D1CEDB22A
:10157000641C082DECD3761CF6B2083C7F1C082EA8
:10158000E0D30120CFE70000F84C0008F84F000836
:1015900065090020640900202DE9F0471E46154624
:1015A0000F4681460024DDF820800DE033462A46B0
:1015B00039464846FFF7F2FE7F1C05EBD60570075B
:1015C00000D06D1C641CE4B24445EFD3BDE8F08745
:1015D0002DE9F8431E0090468946054624D0012493
:1015E00020271FE0301BC1B20A2002F0BFFFB8FB6A
:1015F000F0F20A20B2FBF0F100FB1120012C01D126
:10160000302813D02101103901EB050C0A491023B1
:1016100001EB801249466046CDF80070FFF7BCFF31
:10162000641CE4B2B442DDD9BDE8F8832846102337
:10163000024A49460097F1E7D600002056030020F1
:1016400070B514460E4605462278002A08D0314669
:101650002846641CFFF71CFF002801D0AD1DF3E7EE
:1016600070BD2DE9F04115461E4607460C46A942BD
:1016700001D90D461446324621463846FFF7DFFEB3
:10168000641CE4B2A542F6D2BDE8F081014A1070B4
:1016900051707047640900202DE9F04700261D466F
:1016A000904689460746344620E0281B401E0A2201
:1016B000C1B2012000E05043491EC9B2FBD2B8FBC1
:1016C000F0F00A21B0FBF1F201FB12001EB9AC42AE
:1016D00001D278B101263030C2B204EB440007EBEE
:1016E00040004946FFF7D4FE641CE4B2AC42DCD3B0
:1016F000BDE8F08707EB440020224946FFF70AFFC8
:10170000F2E700002DE9F047DFF8909000246FF039
:101710000E076FF0070A09F5806800BF59F824101A
:1017200008B20E14FFF7AAF80821FFF784F839462B
:10173000FFF781F805463046FFF7A0F80821FFF7CC
:101740007AF83946FFF777F80146FFF742F8064680
:1017500029460846FFF73DF83146FEF7E2FFFFF75E
:10176000AAF802F00BFF5246FFF771F8FFF7B6F840
:1017700064B11021FFF75FF8FFF789F848F82400FB
:10178000641CA4B2FF2CC9D9BDE8F0870F21FFF774
:1017900052F8FFF77CF8C8F80000F1E7703100203C
:1017A000F8B50024009490F824202546012A12D090
:1017B000012280F824204A681F23072A0DD20668D8
:1017C000776B521E02EB820293409F430B6893405B
:1017D0001F43776319E00220F8BD06680D2A0AD27C
:1017E000376BD21F02EB820293409F430B689340FA
:1017F0001F43376309E0F76A0D3A02EB8202934018
:101800009F430B6893401F43F7620A6807230668EB
:101810000A2A0AD3F7680A3A02EB420293409F432E
:101820008B6893401F43F76008E0376902EB420280
:1018300093409F438B6893401F4337610A68102A87
:1018400001D0112A20D1124B02689A4217D1936815
:101850001B0219D4936843F40003936009681029AC
:1018600012D10C490C4A0968B1FBF2F101EB81017C
:10187000490000E0491E00910029FBD104E0816A83
:1018800041F020018162012480F824502046F8BDF7
:10189000002401406009002040420F0010B5FFF70E
:1018A00079FA02490120087010BD000000000020F4
:1018B000704770472DE9F0414FF0000704003D46A6
:1018C0007ED0A06A002628B9E66284F8246020460B
:1018D00000F07EF82046FFF74FF9A16A01F01001F1
:1018E000014304D0A06A40F01000A06268E0A16A41
:1018F00021F4885141F00201A1626268E169E36864
:101900000A4347EA43010A43A1684FF48077B9428A
:1019100008D0012906D00021D4F814C0BCF1010F71
:1019200002D00AE03946F7E7F3B1A36A43F0200397
:10193000A362E36A43F00103E3622368D3F804C0BF
:101940002CF4694C4CEA010CC3F804C02368996874
:10195000DFF870C001EA0C0111439960A168B94237
:101960000BD0012909D00CE0DFF85CC0A3690CEBB7
:1019700043330B4343F40061DFE7218A0D05A5F5EE
:1019800080152168CB6A23F470032B43CB62216856
:1019900089680E4B1940914208D1E662A16A21F094
:1019A000020141F00101A162BDE8F081A06A20F0CE
:1019B000020040F01000A062E06A40F00100E06226
:1019C0000120F1E7FDF7E1FF00E0FFFFFE0E1FFF42
:1019D00030B505460068184985B0884229D11748B6
:1019E000816941F4007181618069694600F4007089
:1019F00004900120009003200190114800F014FA97
:101A0000114C10488021206000206060C4E9020170
:101A100089002161890061612021C4E90610204606
:101A200000F08AF918B1732108A002F07DFB2C6246
:101A3000656205B030BD0000002401400010024086
:101A40000008014008000240A03A00202E2E2F532B
:101A500072632F6164632E63000000002DE9F0477C
:101A6000894604463B4900683B4F0E1D904688421C
:101A700001D0B84207D1306810F4702F03D001258F
:101A80002846BDE8F08794F8240001280CD00120F6
:101A900084F824002046FFF7CFF805004FF000003F
:101AA00004D084F82400EBE70220EAE7A16A40F6BC
:101AB0000162914341F48071A1622168B94218D159
:101AC000326812F4702F14D0A16A41F48011A1621F
:101AD0003168490505D5A16A21F4005141F48051CE
:101AE000A162A16AC9040AD5E16A21F00601E16296
:101AF00006E0A26A22F48012A2624968E9E7E06285
:101B000084F82400216A15488862216A1448C86252
:101B1000216A1448086321686FF002000860206899
:101B2000816841F480718160216843464A464C31A6
:101B3000206A00F033F920688168C1F34241072927
:101B4000816803D041F48011816099E741F4A001DC
:101B5000FAE700000024014000280140C50B0008FE
:101B60002D0C0008130C000810B5044690F8240052
:101B7000012807D0012084F824002046FEF7FCFF4E
:101B800010B10EE0022010BD2068816821F4807140
:101B90008160206A00F00EF8A16A30B141F0400186
:101BA000A162002184F8241010BD21F4885141F075
:101BB0000101F5E701680A6822F00E020A60016877
:101BC0000A6822F001020A6090F84020C36B0121EC
:101BD00001FA02F25A6080F82110002180F82010EA
:101BE000084670472DE9F05FC16B0C6801680B680F
:101BF000D0F840C0042202FA0CF2494DDFF824A1CB
:101C0000494E4A4FDFF828B1DFF828E122422CD0B4
:101C10005A072AD50A68920603D40A6822F00402F9
:101C20000A600168A94201D1042219E0514501D19D
:101C3000402215E0B14202D14FF4806210E0B94277
:101C400002D14FF480420BE0594502D14FF480227B
:101C500006E0714502D14FF4800201E04FF080624E
:101C60002F4908394A60C16A3BE04FF0020808FA80
:101C70000CF818EA040F4FF000094FF0010235D0BC
:101C80005FEA837832D50B689B0605D40B6823F096
:101C90000A030B6080F821200168A94201D10222C9
:101CA00019E0514501D1202215E0B14202D14FF493
:101CB000007210E0B94202D14FF400520BE05945D6
:101CC00002D14FF4003206E0714502D14FF4001208
:101CD00001E04FF00072124908394A6080F8209004
:101CE000816A00291AD0BDE8F05F0847082505FA87
:101CF0000CF5254212D01B0710D50B6823F00E03FC
:101D00000B6090F84010C36B02FA01F159608263D6
:101D100080F8212080F82090016BE2E7BDE8F09F79
:101D2000080002401C000240300002404400024013
:101D3000580002406C00024030B548B308C815494D
:101D400014221944B1FBF2F18900C1631249816385
:101D5000022141771A6843F6F0718A43D0E90014F2
:101D60002143D0E902452C432143046921434469BE
:101D7000214384692143114319600021416281623A
:101D8000C16201634163012242770177084630BD99
:101D9000012030BDF8FFFDBF0000024070B50446D1
:101DA00090F82000002501280CD0012084F82000A4
:101DB00094F821600020012E06D084F8200002252E
:101DC000284670BD022070BD022684F82160A06301
:101DD0002068066826F0010606602046FEF76CFFC4
:101DE000E06A00282068016802D041F00E0106E098
:101DF00021F0040101602068016841F00A010160DE
:101E00002068016841F001010160D9E731B500F0B7
:101E1000EFF8009C0546601C00D0641C00F0E8F858
:101E2000401BA042FAD338BD2DE9F84FDFF890A14E
:101E300000220AF1040B144601274FF00F090BF1A1
:101E4000040E00BF0B6807FA04F52B40AB4274D1B7
:101E5000DFF870C14E68A6EB0C0866452BD00DDC90
:101E6000032E34D005DC36B3012E19D0022E2FD12B
:101E70001BE0112E16D0122E2AD119E0B8F5881FBA
:101E800019D006DCB8F5803F15D0B8F5801F1FD1FA
:101E900011E0B8F5001F0ED0B8F5041F18D10AE004
:101EA000CA6815E0CA68121D12E0CA6808320FE05D
:101EB000CA680C320CE08A682AB1012A4FF0080285
:101EC00003D0456104E0042202E0056100E0002245
:101ED000FF2B01D8064601E000F104064FEA840515
:101EE00001D9A5F12005D6F800C009FA05F82CEAB9
:101EF000080C02FA05F54CEA050CC6F800C04D685E
:101F0000ED0057D5304DAE6946F00106AE61AD69C2
:101F100024F0030605F0010500952C4D06EB050C99
:101F2000DCF80850A6074FEA167809FA08F6B54318
:101F3000274EB04202D1002610E03BE0254EB042D1
:101F400001D101260AE0244EB04201D1022605E06B
:101F5000224EB04201D1032600E0042606FA08F61C
:101F60002E43CCF808604D68DAF80060ED03554662
:101F700001D51E4300E09E432E604D68DBF80060F3
:101F8000AD035D4601D51E4300E09E432E604D68C3
:101F9000DEF80060ED02754601D51E4300E09E4369
:101FA0002E604D68AD020E4D2E6801D51E4300E037
:101FB0009E432E60641C102CFFF444AFBDE8F88FE4
:101FC0000004014000001110001002400000014018
:101FD00000080140000C01400010014000140140C5
:101FE0000C0401400AB1016170470904FBE70000DD
:101FF00001480068704700005C0900200248016841
:10200000491C0160704700005C090020074810B5BA
:10201000016841F010010160032000F093F80020F6
:1020200000F006F800F018F8002010BD0020024073
:1020300010B5044607484FF47A710068B0FBF1F020
:1020400000F09EFC00222146501E00F05BF80020AC
:1020500010BD000060090020224808B5816941F0E8
:1020600001018161816901F001010091C16941F0C3
:102070008051C161C06900F080500090032000F0E1
:1020800061F8002211466FF00B0000F03BF80022CF
:1020900011466FF00A0000F035F8002211466FF08B
:1020A000090000F02FF800221146501F00F02AF816
:1020B00000221146101F00F025F800221146901E44
:1020C00000F020F800221146501E00F01BF80648D0
:1020D000416821F0E0614160416841F00071416078
:1020E00008BD0000001002400000014000F01F0287
:1020F000012191404009800000F1E020C0F800116A
:1021000070470000F0B40E4B1B680C46C3F302236B
:10211000C3F10705042D00D90425191D072901D293
:10212000002300E0DB1E012606FA05F1491E2140CE
:1021300099409E40761E16403143F0BC01F096BA9D
:102140000CED00E0064900F0070208684FF6FF03B7
:10215000184040EA0220034A10430860704700001C
:102160000CED00E00000FA0501490120086270470B
:1021700000000E4210B529A401461DCC86B08DE8A2
:102180001D002AA02A4C006804900020012923D0B9
:1021900002293AD010291DD161682268D20119D5CF
:1021A000C1F38342C9031DF8020009D5616804AA7E
:1021B000C1F34041515C1F4AB2FBF1F1484301E0D9
:1021C0001D4948436168490204D440005FF003019F
:1021D000B0FBF1F006B010BD226AC2F30121012963
:1021E00003D1920701D5C803F4E7022905D1626A39
:1021F000920702D549F64040ECE70329EAD121686D
:102200008903E7D54FF22440E4E700F04DF9616817
:10221000C1F38131491C4900DAE7000002030405DB
:10222000060708090A0B0C0D0E0F10100102000022
:102230000010024000127A0000093D002DE9F84329
:1022400005460078354CC00754D0E0690026C00030
:1022500008D4E06940F08050E061E069012600F0B8
:10226000805000902E480168C90512D4016880464C
:1022700041F480710160FFF7BBFE074605E000BF37
:10228000FFF7B6FEC01B642823D8D8F80000C005AD
:10229000F6D5206A10F4407021D0A98801F440716D
:1022A00081421CD0206A1F49012220F440700A603C
:1022B00000220A602062C00711D0FFF799FE07468E
:1022C00041F2883808E000BFFFF792FEC11B41458C
:1022D00002D90320BDE8F883206A8007F4D5206A7C
:1022E000696820F44070084320621EB1E06920F064
:1022F0008050E0612878800705D56068A96820F4DF
:102300004040084360602878C00605D56068E968E9
:1023100020F48000084360600020DBE700100240EA
:1023200000700040400442422DE9F047DFF83C8154
:1023300005460E46D8F8000000F00700B0420CD267
:10234000D8F8001021F007013143C8F80010D8F880
:10235000000000F00700B04263D12878444C8007A9
:1023600005D56068A96820F0F0000843606028780F
:10237000C00745D06868012816D02168022816D009
:10238000890700294DDA616821F00301014361608A
:10239000FFF72EFE6968074641F2883001290FD009
:1023A0000229814619D027E021688903E9E78901DC
:1023B000E7E700BFFFF71CFEC11B494501D918E044
:1023C00081466068C0F381000128F3D118E000BFA6
:1023D000FFF70EFEC11B49450BD86068C0F38100B2
:1023E0000228F5D10CE000BFFFF702FEC11B4945F2
:1023F00002D90320BDE8F087606810F00C0FF3D11C
:10240000D8F80010404601F00701B1420BD901682D
:1024100021F0070131430160006800F00700B0427D
:1024200001D00120E6E72878400705D56068E96813
:1024300020F4E060084360602878000706D56068F3
:10244000296920F4605040EAC100606000F03CF867
:102450006168084AC1F30311515CC840064908602D
:102460000020FFF7E5FD0020C4E700000020024047
:1024700000100240E049000860090020014800689F
:102480007047000060090020044805490068496859
:10249000044AC1F30221515CC84070476009002022
:1024A00000100240F04900080448054900684968E6
:1024B000044AC1F3C221515CC84070476009002042
:1024C00000100240F049000810B512A385B00FCBF0
:1024D0008DE80F0013A0144B006804905A6813484D
:1024E00002F00C0104290FD008290DD1C2F3834456
:1024F000D2031DF8041009D55A6804ABC2F3404258
:102500009A5CB0FBF2F0484305B010BD0848484360
:10251000FAE7000002030405060708090A0B0C0D80
:102520000E0F1010010200000010024000127A008D
:1025300000093D002DE9F84F04460078B94DC00769
:1025400048D06868C0F38100012807D06868C0F3EC
:102550008100022809D16868C00306D52868800375
:1025600038D5606800286FD034E06068B0F5803FEF
:102570000BD010B1B0F5A02F11D0286820F4803016
:102580002860286820F4802002E0286840F4803029
:102590002860606888B1FFF72BFD064609E02868CF
:1025A00040F480202860F0E7FFF722FD801B6428BC
:1025B00075D828688003F7D50CE0FFF719FD0646AB
:1025C00005E000BFFFF714FD801B6428F0D82868E1
:1025D0008003F7D42078944E80074FF001094FF024
:1025E00000083BD5686810F00C0F07D06868C0F38E
:1025F0008100022809D16868C00306D428688007D2
:1026000014D5206901281FD110E02069B0B1C6F8A7
:102610000090FFF7EDFC074605E000BFFFF7E8FC80
:10262000C01B0228C4D828688007F7D528686169CC
:1026300020F0F80040EAC10028600FE0C6F80080F2
:10264000FFF7D6FC074606E0E9E000BFFFF7D0FC45
:10265000C01B022823D828688007F7D420780007F9
:102660002CD57248A169D9B1C0F80090FFF7C0FC21
:10267000074604E0FFF7BCFCC01B02280FD8686ABD
:102680008007F7D56A484FF4FA510068B0FBF1F0C3
:10269000009000BF0098411E0091FAD20EE080E049
:1026A000C0F80080FFF7A4FC074604E0FFF7A0FC99
:1026B000C01B022875D8686A8007F7D420784007C5
:1026C00060D5E8690027C00008D4E86940F0805070
:1026D000E861E869012700F08050009055480168E2
:1026E000C90513D40168834641F480710160FFF786
:1026F0007FFC824606E000BFFFF77AFCA0EB0A00F1
:1027000064284ED8DBF80000C005F5D5E068012844
:102710000AD008B1052813D0286A20F001002862E9
:10272000286A20F0040002E0286A40F001002862D4
:10273000E06841F2883B98B1FFF75AFC82460BE013
:10274000286A40F004002862EEE700BFFFF750FC63
:10275000A0EB0A0159455AD8286A8007F6D50CE043
:10276000FFF746FC824605E0FFF742FCA0EB0A01BA
:1027700059454CD8286A8007F6D41FB1E86920F083
:102780008050E861E06988B36968C1F3810102297A
:1027900045D00228C6F8608004D0FFF729FC044623
:1027A00038E034E0FFF724FC074604E0FFF720FCA4
:1027B000C01B02282BD828688001F7D4206AB0F506
:1027C000803F05D16868A16820F400300843686044
:1027D000D4E908010843696821F47411084368606A
:1027E000C6F86090FFF704FC044606E015E000BF61
:1027F000FFF7FEFB001B022809D828688001F7D5E7
:102800000BE000BFFFF7F4FB001B022802D90320F6
:10281000BDE8F88F28688001F4D40020F8E7012093
:10282000F6E70000001002400000424280044242ED
:102830006009002000700040024850F8210080B27A
:1028400070470000006C0040024800EB810091B22C
:1028500001607047006C004070B5040003D0607CDC
:10286000002610B105E0012070BD2674204600F05E
:1028700043F802206074204600F058F8042578BB25
:10288000204600F0F1FF58BB2068416821F00701A5
:102890004160A06820B11748016821F00101016082
:1028A0001448001F0168A26821F46071114301609F
:1028B0006068411C04D10120FFF75CFC80B1401E20
:1028C00021688A6822F00F0242EA10428A60216879
:1028D000CA6860F30F02CA60204600F0DFFF08B14B
:1028E0006574C0E7E67301206073A0736074002014
:1028F00070BD0000306C004008B50068084988428F
:102900000DD1FFF731FC0748C16941F00061C16199
:10291000C069054900F0006000900120086008BD12
:1029200000280040001002403C04424270B5040000
:102930000AD02068416821F008014160FFF758FB88
:1029400005464FF47A7608E0012070BDFFF750FB92
:10295000401BB04201D9032070BD206840680007C9
:10296000F4D5002070BD4FF0E0210428086903D0A1
:1029700020F004000861704740F00400FAE7704757
:1029800010B5401EB0F1807F01D3012010BD4FF083
:10299000E02460610F21601700F068FE0020A06154
:1029A00007202061002010BD10B5FFF7E8FF10BD23
:1029B0007047704730B590F83C20012A20D00122A2
:1029C00080F83C20022380F83D3003685C6824F0E6
:1029D00070045C6003685C680D682C435C6003688D
:1029E0009C6824F080049C6003689C6849680C43E0
:1029F0009C6080F83D20002180F83C10084630BDE6
:102A0000022030BD10B5040003D094F83D0010B191
:102A100007E0012010BD002084F83C00204600F0B3
:102A20000DF8022084F83D00211D206801F0C0F956
:102A3000012084F83D00002010BD000008B50168A9
:102A40001048B1F1804F0BD00F4A914207D1C169B4
:102A500041F00201C161C06900F00200009008BDB0
:102A6000C16941F00101C161C069002200F00100AB
:102A7000009011461C20FFF745FBBDE808401C20D4
:102A8000FFF734BB0010024000040040022180F830
:102A90003D1001680A6842F001020A60012180F8D5
:102AA0003D1000207047022180F83D1001680A6A3D
:102AB00041F211131A4207D10A6A9B101A4203D13C
:102AC0000A6822F001020A60012180F83D1000200E
:102AD00070470168CA6822F00102CA600068016A92
:102AE00041F21112114207D1016A9210114203D131
:102AF000016821F0010101600020704770B50446B3
:102B000090F83C00012817D0012584F83C500220A1
:102B100084F83D002068826822F0770222F47F4228
:102B200082600868502837D00DDC202859D005DC99
:102B300088B3102841D151E0022070BD302853D015
:102B400040283AD13FE060282ED070280BD0B0F555
:102B5000805F03D0B0F5005F2FD110E0206881685E
:102B600021F0070115E0CB68D1E90121206801F0CF
:102B700055F92168886840F0770088601DE0CB68CF
:102B8000D1E90121206801F049F92068816841F408
:102B90008041816011E01EE0CA684968206801F048
:102BA0004FF95021206806E0CA684968206801F0A2
:102BB00058F96021206801F03BF984F83D5000206D
:102BC00084F83C0070BDCA684968206801F038F993
:102BD00040212068EFE700212068ECE71021206801
:102BE000E9E720212068E6E730212068E3E7704725
:102BF00070B50446006801694FF00005C9438907B4
:102C000015D4C168C943890711D4E91E01610120A7
:102C10002077206880698007204602D0FFF7E7FF11
:102C200004E000F098F8204600F096F82577206838
:102C30000169C943490717D4C168C943490713D477
:102C40006FF004010161022020772068806910F490
:102C5000407F204602D0FFF7CAFF04E000F07BF877
:102C6000204600F079F8257720680169C9430907F3
:102C700016D4C168C943090712D46FF00801016175
:102C8000042020772068C0698007204602D0FFF723
:102C9000AEFF04E000F05FF8204600F05DF8257715
:102CA00020680169C943C90617D4C168C943C90668
:102CB00013D46FF010010161082020772068C069EB
:102CC00010F4407F204602D0FFF791FF04E000F0AF
:102CD00042F8204600F040F8257720680169C94392
:102CE000C90708D1C168C943C90704D1891E016158
:102CF000204600F033F820680169C943090609D469
:102D0000C168C943090605D46FF0800101612046FE
:102D1000FFF74EFE20680169C943490609D4C1681E
:102D2000C943490605D46FF040010161204600F017
:102D300029F820680169C94389060BD4C168C943D1
:102D4000890607D46FF0200101612046BDE870407C
:102D5000FFF72FBE70BD704770470000074900683D
:102D60000968884209D106494888401C80B24880D9
:102D7000142802D10148FFF7ACBE7047F83A002092
:102D800056090020704770B5040004D094F839004B
:102D9000002510B106E0012070BD84F838502046AF
:102DA00000F022F8242084F839002068C16821F45A
:102DB0000051C160204601F067F82068016921F4E4
:102DC000904101612068416921F02A014161206838
:102DD000C16841F40051C160E563202084F83900E6
:102DE00084F83A00002070BD10B50068114986B023
:102DF00088421DD11048816941F480418161806918
:102E00000E4C00F4804004904FF4007000900220BB
:102E100001900320039069462046FFF705F8002142
:102E20002015CDE90001029169462046FEF7FCFF1E
:102E300006B010BD003801400010024000080140FB
:102E40002DE9F843044690F839001F4616460D4612
:102E5000202850D1A5B19EB194F8380001284AD05D
:102E6000012084F838004FF00008C4F83C8021208D
:102E700084F83900FFF7BCF8A6848146E68426E092
:102E80000120BDE8F883E08C401EE084A0684B463A
:102E9000B0F5805F4FF000024FF0800120460097B0
:102EA00003D001F0A9F8E8B90DE001F0A5F8C8B920
:102EB00028882168C0F308004860206908B16D1CAB
:102EC00005E0AD1C03E0216815F8010B4860E08CBB
:102ED0000028D8D14B46002240212046009701F01F
:102EE0008BF808B10320CCE7202084F8390084F85F
:102EF00038800020C5E70220C3E7FEE770B5354DF6
:102F00004FF48054002221462846FFF76BF84FF417
:102F10007A7000F0CFFB012221462846FFF762F8C5
:102F2000AE2001F0CFF8B02001F0CCF8002001F085
:102F3000C9F8102001F0C6F8002001F0C3F8D52030
:102F400001F0C0F8402001F0BDF8D92001F0BAF836
:102F5000222001F0B7F8402001F0B4F8812001F000
:102F6000B1F8FF2001F0AEF8A02001F0ABF8C020CE
:102F700001F0A8F8A42001F0A5F8A62001F0A2F81D
:102F8000A82001F09FF83F2001F09CF8AD2001F04F
:102F900099F8802001F096F8D32001F093F80020F2
:102FA00001F090F8DB2001F08DF8302001F08AF874
:102FB000DC2001F087F8302001F084F8332001F0A4
:102FC00081F8AF2001F07EF8BDE87040002108468E
:102FD00000F0BCBB000C014081070CD16421B0FBA8
:102FE000F1F201FB120141B94FF4C871B0FBF1F2EB
:102FF00001FB120008B1002070470120704700005B
:103000000248002141700170704700000300002059
:1030100010B500F013F800280CD00749097829B141
:10302000012907D1BDE8104000F0BEB8BDE810404E
:1030300000F026B810BD0000160000200E490868F8
:10304000C0F342120D48072A12D00968427801F0F5
:10305000E0017AB901224270602907D0A02903D08B
:10306000C02907D103207047022070470120704714
:103070000021417000207047080801400100002035
:103080002DE9F047444C0128217866781FD0DFF8FD
:103090000C91434A434BA4F1020A99F800809AF834
:1030A00000C017781D78022831D003284AD10420A7
:1030B000F1B3012961D0022944D1D6B3012E67D0E2
:1030C000022E3FD1BCF1000F4ED000214DE0012572
:1030D00029B1012906D0022934D125703AE0FDF743
:1030E00059FEFAE702202070FEB1012E07D0022E11
:1030F00009D0032E26D1BDE8F047FDF77FBEBDE81D
:10310000F047FDF725BFBDE8F047FDF79DBF002064
:1031100091B1012918D0022914D1002ECED16D1CF5
:10312000E9B219700A2900D91870BDE8F04701E02A
:103130001EE027E0FDF798BE7F1CF9B2117003294D
:1031400000D91070BDE8F087761CF1B261700329D8
:1031500000D96070BDE8F04700F0EEBC012100E04E
:10316000002189F80010CAE701218AF80010CAE797
:1031700007B910701078401EE3E706B960706078F8
:10318000401EE6E70DB90B2018701878401ECBE7FB
:10319000B8F1000FE4D1E1E7030000200F000020A8
:1031A0000D0000200E0000202DE9F05F734B012878
:1031B0001C785D7822D07249724AA3F1020EB1F8F0
:1031C00004A09EF800B091F8019091F8028092F866
:1031D00000C05778967802282ED003287ED1002C84
:1031E0007CD0012C7BD0022C78D13C20072D75D2CD
:1031F000DFE805F0909CA4ACB4B9BE0001202CB16E
:10320000012C07D0022C69D118702AE0187000F048
:1032100061FB26E002201870082D5FD2DFE805F080
:10322000303B47535D6A0408BDE8F05FFDF73ABFE5
:10323000BDE8F05FFDF7F2BD002C4FD00020012C5F
:1032400009D0022C4AD1072D48D2DFE805F00E1D27
:103250002834404D91006D1CE9B25970072900D9FE
:103260005870BDE8F05F00F0A3BC0AF1010080B225
:1032700040F633028880904202D940F2B27053E0A7
:10328000BDE8F05FFDF740BF09F10102D2B24A701C
:103290000C2A00D94870BDE8F05FFDF789BE08F13F
:1032A000010808F0FF028A701F2A00D98870BDE863
:1032B000F05FFDF77DBD0CF1010C0CF0FF0111700A
:1032C000182900D91070BDE8F05FFDF7F5BD7F1C2F
:1032D000F9B251703B2900D9507001E04CE013E085
:1032E000BDE8F05FFDF70EBE761CF1B291703B2990
:1032F00000D99070BDE8F05FFDF780BE012100E0CD
:1033000000218EF800108FE70DB90820587058780A
:10331000401EA5E740F2B2725046924502D240F6F6
:103320003400888080B2401E8880A9E75FEA0900E7
:1033300001D10D204870C0B2401EABE7B8F1000FBC
:1033400001D1202088708878401EAFE7BCF1000FC3
:1033500001D1192010701078401EB3E707B95070E2
:103360005078401EB8E706B990709078401EC0E7CC
:10337000BBF1000FC4D1C1E7BDE8F09F03000020FE
:103380002000002019000020044B4FF4807118B178
:1033900001221846FEF726BE0022FAE70008014087
:1033A0003EB51248002410498460C4604461016045
:1033B000012505614FF400214460C161FEF77AFAEE
:1033C00018B145210AA000F0AFFECDE900456946DD
:1033D00006480294FEF7E4F9002803D04F2104A028
:1033E00000F0A2FE3EBD000000240140703A002023
:1033F0002E2E2F5372632F6164632E630000000032
:10340000094808B5416941F0010141614069002264
:1034100000F00100009001210B20FEF773FEBDE8D3
:1034200008400B20FEF762BE001002402DE9F04379
:103430002B4885B0816941F010018161816901F0FB
:1034400010010491816941F020018161816901F0DD
:1034500020010491816941F004018161816901F0D9
:1034600004010491816941F0080181618069DFF8FC
:10347000748000F0080004900022FF214046FEF70F
:10348000B1FD01224FF478414046FEF7ABFDDFF875
:1034900058904FF48077002239464846FEF7A2FD47
:1034A000E020002401258DE8310069464846FEF7FA
:1034B000BBFC4FF6FF000226CDE90005CDE9024630
:1034C00069464046FEF7B0FC00970396CDE90154EB
:1034D00069464846FEF7A8FC05B0BDE8F083000049
:1034E00000100240000C0140000801400B4810B5DC
:1034F000094901604FF0FF3141604FF480718160F4
:10350000FFF7AAF9002805D0BDE810403C2104A02F
:1035100000F00ABE10BD000000280040E43A002080
:103520002E2E2F5372632F7274632E6300000000DF
:1035300010B5174886B04FF0804101604721002444
:10354000C0E901144FF6FF71C0E903148461FFF76D
:1035500059FA18B140210FA000F0E6FD4FF4805059
:10356000009069460A48FFF7C9FA18B1462109A038
:1035700000F0DAFD049404A905480594FFF71AFA4F
:10358000002803D04D2103A000F0CEFD06B010BDF1
:10359000F83A00202E2E2F5372632F74696D2E631C
:1035A0000000000010B5184886B016490160472198
:1035B0000024C0E901146421C0E903148461FFF709
:1035C00021FA18B15F2111A000F0AEFD4FF4805038
:1035D000009069460C48FFF791FA18B165210BA0DD
:1035E00000F0A2FD2020CDE9040404A90648FFF75D
:1035F000E1F9002803D06C2104A000F095FD06B08D
:1036000010BD000000040040383B00202E2E2F5338
:1036100072632F74696D2E63000000000D4810B5B1
:103620000B4901604FF4E1314160002181600C22BF
:10363000C160C0E904128161C161FFF7A4FB0028E9
:1036400005D0BDE81040422103A000F06DBD10BDC3
:1036500000380140783B00202E2E2F5372632F75C7
:10366000736172742E630000FEE770470907090E4C
:10367000002806DA00F00F0000F1E02080F8141DA9
:10368000704700F1E02080F80014704710B5002169
:10369000074C0A46002004EBC1131A54401C80B2A8
:1036A0008028FAD3491C89B24029F3D310BD000009
:1036B00070090020002808D040F6FF731946022246
:1036C000521C8A42FCD3401EF8D1704710B5B0F5A9
:1036D000807F10D840290ED80F2A00D90F22C0F3BE
:1036E0004703C407074800EBC110C15C04D001F0D8
:1036F000F0011143C15410BD01F00F0141EA021164
:10370000F8E70000700900202DE9F0410E4F002479
:10371000B02000F0D7FC204600F0D4FC002000F0E0
:10372000D1FC102000F0CEFC002507EBC416705D24
:1037300000F096FC6D1CEDB2802DF8D3641CE4B251
:10374000402CE5D3BDE8F0817009002070B5044637
:103750000D46B02000F0B6FC284600F0B3FC102067
:1037600040EA141000F0AEFC04F00F00BDE8704019
:1037700000F0A8BC70470000F8B500F0ABF8384D79
:10378000691EA8780A78904269D00870FDF7E2FCBB
:103790002A78022300214020FDF71AFF202405F299
:1037A0007D3210231646002160200094FDF7F4FEC0
:1037B0006A78022300217020FDF70AFF10233246A9
:1037C000002190200094FDF7E7FEAA780223002153
:1037D000A020FDF7FDFEED1D02236A7820210020C8
:1037E000FDF7F6FE202305F636021946184600942A
:1037F000FDF7D2FEAA78022320214020FDF7E8FE43
:10380000202305F6B602194660200094FDF7C4FE99
:10381000202305F236721946A0200094FDF7BCFE65
:10382000202305F2B6721946C0200094FDF7B4FEBD
:103830002878009470B105F2B63101EBC012202354
:103840001946E020B2F18002FDF7A6FEBDE8F8407F
:10385000FDF782BC2023034A1946E020F4E7F8BDB7
:1038600019000020D606002070B50446FEF7C0FB04
:1038700005464FF47A7606E0FEF7BAFB401BB042ED
:1038800001D9032070BD206840688006F4D5206807
:10389000416841F010014160002070BD70B50446E0
:1038A0000068416821F010014160FEF7A1FB054668
:1038B0004FF47A7607E000BFFEF79AFB401BB04258
:1038C00001D9032070BD206840688006F4D500202F
:1038D00070BD00002DE9F043344800688169C0697B
:1038E000334F40EA0146B6FBF7F3324800F10804D3
:1038F0004168994231D040F2B2754FF4B7794FF434
:10390000B67843600FE02846FFF766FB38B14B45B9
:1039100002D3A3F5B77304E06D1CADB205E0A3F2CA
:103920006D136D1CADB24345EDD8A5800025DFF8C1
:1039300088800CE02846FFF74FFB08B1012D30D0FE
:1039400018F80500984204D81B1A6D1CADB21C2B48
:10395000F0D26D1C65705B1CA370B6FBF7F007FB23
:1039600010604FF46161B0FBF1F3124A521C137006
:10397000B0FBF1F301FB13053C23B5FBF3F55570E8
:10398000B0FBF1F501FB1500B0FBF3F103FB1100F7
:103990009070A2786178A08800F010F82070BDE8DF
:1039A000F0831D2BD5D31D3BCFE70000E43A002068
:1039B0008051010018000020D449000830B564246B
:1039C000B0FBF4F3B0FBF4F5DBB204FB1500132BF2
:1039D00001D96430C0B200EB90040723B4FBF3F5C7
:1039E00003FB1544084D22440D44800715F8015C83
:1039F0002A4492B203D1032901D2521E92B2B2FBE1
:103A0000F3F003FB102030BDC84900081CB50121AC
:103A10000D48FEF711FF4AF2A554A04212D014211E
:103A20003B20CDE9000117230722032140F2E37078
:103A300000F00CF802B02246BDE810400121024817
:103A4000FEF702BF1CBD0000E43A00202DE9F04F54
:103A50009A4605460023A0F2B270DDF824B09146E4
:103A60008846822802D30120BDE8F08F40F2B2746C
:103A70001F4E204F08E02046FFF7AEFA08B133444E
:103A800000E03B44641CA4B2AC42F4D3A8F10100B2
:103A9000C6B20024184FDFF864800EE0385D40F2B3
:103AA000A321484303EBC0132846FFF795FA10B152
:103AB000012C00D14344641CA4B2B442EED340F2C2
:103AC000A32109FB01F00D4903EBC0104942084452
:103AD000CAEB4A12C2EB0A2100EB0110CBEB0B112F
:103AE00000EB81000A99084400F00AF80020BBE7C7
:103AF0000085E2018033E101D449000880510100D2
:103B00000B490A6853689B06FCD5536843F01003C1
:103B100053600A68030C936180B2D061506820F052
:103B200010005060086841688906FCD570470000A5
:103B3000E43A00207047000008B5FDF70BFB0720B2
:103B4000009010480F4A05234078921CC1000020C5
:103B5000FDF75AFC0CA200210820FDF771FD082199
:103B60000CA20846FDF76CFD0CA210210820FDF701
:103B700067FD0DA218210820FDF762FDBDE8084091
:103B8000FDF7EABA0300002046616C5F737065655B
:103B90006400000041204F72204D000053686F7791
:103BA0005F4D6F6465000000457869740000000097
:103BB00008B5FDF7CFFA072000901A48194A0523E7
:103BC0004078921CC1000020FDF71EFC16A20021C7
:103BD0000820FDF735FD082115A20846FDF730FD48
:103BE00015A210210820FDF72BFD15A21821082091
:103BF000FDF726FD14A220210820FDF721FD14A2C7
:103C000028210820FDF71CFD13A230210820FDF714
:103C100017FD14A238210820FDF712FDBDE8084069
:103C2000FDF79ABA03000020596561720000000098
:103C30004D6F6E7468000000446174650000000000
:103C4000486F7572730000004D696E75746573007E
:103C50005365636F6E64730053686F775F4D6F6475
:103C6000650000004578697400000000144A15489A
:103C7000012100BF52F82130322B04DC491CC9B2AB
:103C8000FF29F7D305E0FF2903D20179491C01710F
:103C900002E04179491C41718179491CC9B28171A5
:103CA0000A2901D0022070470021817102794379ED
:103CB00001719A42417101D900207047012070477B
:103CC000703500200C00002010B5FEF797F9BDE814
:103CD0001040FEF769BE30B593B0012105200024E5
:103CE0000090CDE902414FF480300190022504910B
:103CF000CDE907504FF4E01009906846FEF71AFC32
:103D000000B1FEE70F20CDE90A054FF48060CDE950
:103D10000C4002210AA80E94FEF706FB00B1FEE754
:103D200003200F904FF480701090C00111900FA8E5
:103D3000FEF784FA00B1FEE7FEF7A0FB4FF47A71BC
:103D4000B0FBF1F0FEF71CFE0420FEF70CFE002293
:103D50001146501EFEF7D6F913B030BD0D4801686C
:103D600041F00101016041680B4A11404160016866
:103D70000A4A11400160016821F480210160416814
:103D800021F4FE0141604FF41F0181600449C0032A
:103D900008607047001002400000FFF8FFFFF6FEC9
:103DA00008ED00E00148FEF723BF0000F83A0020CC
:103DB000F0B50268164B174C174D4FF080479842EC
:103DC00005D0B84203D0A04201D0A84203D122F0CE
:103DD00070064A683243984205D0B84203D0A042E8
:103DE00001D0A84203D122F44074CA68224322F0D1
:103DF00080044A69224302608A68C2620A68826259
:103E0000984201D10969016301214161F0BD0000BF
:103E1000002C0140000400400008004010B58468F8
:103E200042EA032224F47F440A432243826010BD05
:103E3000826822F070020A4342F0070181607047F5
:103E400010B5036A046A24F001040462846924F052
:103E5000F00444EA021423F00A020A438461026275
:103E600010BD10B5036A23F0100303628369046A6E
:103E700023F4704343EA023224F0A00343EA011121
:103E80008261016210BD00002DE9F0410446006826
:103E90000169E26821F44051114301612169A06880
:103EA0000843616908432168CA6841F20C639A4378
:103EB0000243CA6020684169A26921F4407111433C
:103EC00041614C4920686425322688423CD1FEF786
:103ED000EBFA00EBC00101EB001061688900B0FB58
:103EE000F1F7FEF7E1FA00EBC00101EB00106168A9
:103EF000B0468900B0FBF1F0B0FBF5F06FF01801AF
:103F0000484307EB800106EB0110B0FBF5F000F031
:103F1000F006FEF7C9FA00EBC00101EB0010616882
:103F20008900B0FBF1F0B0FBF5F006EB0016FEF7F0
:103F3000BBFA00EBC00101EB001061688900B0FB27
:103F4000F1F7FEF7B1FA3BE0FEF79EFA00EBC00195
:103F500001EB001061688900B0FBF1F7FEF794FAFD
:103F600000EBC00101EB00106168B0468900B0FBB6
:103F7000F1F0B0FBF5F06FF01801484307EB80015A
:103F800006EB0110B0FBF5F000F0F006FEF77CFA4E
:103F900000EBC00101EB001061688900B0FBF1F09B
:103FA000B0FBF5F006EB0016FEF76EFA00EBC00171
:103FB00001EB001061688900B0FBF1F7FEF764FACD
:103FC00000EBC00101EB001061688900B0FBF1F06B
:103FD000B0FBF5F06FF01801484307EB800108EBE8
:103FE0000110B0FBF5F0216800F00F00304488604C
:103FF000BDE8F081003801402DE9F04198461746B0
:104000000E460446069D1DE0681C1BD02DB1FDF731
:10401000EFFFA0EB0800A84214D92068C16821F482
:10402000D071C1602068416921F001014161202007
:1040300084F8390084F83A00002084F8380003201E
:10404000BDE8F0812068006836EA000004D0002056
:10405000B842D9D00020F3E70120F9E7FEE70000DD
:104060002DE9F04116490A6822F0FF020A600A6849
:1040700002430A60124D4C140C3D01222146284691
:10408000FDF7B0FFA610002231462846FDF7AAFF33
:104090006700002239462846FDF7A4FF0122394671
:1040A0002846FDF79FFF012231462846FDF79AFF7B
:1040B00021462846BDE8F0410122FDF793BF0000EC
:1040C0000C0C01402DE9F04116490A6822F0FF026C
:1040D0000A600A6802430A60124D4C140C3D00222B
:1040E00021462846FDF77EFFA610002231462846CD
:1040F000FDF778FF6700002239462846FDF772FF7A
:10410000012239462846FDF76DFF01223146284637
:10411000FDF768FF21462846BDE8F0410122FDF782
:1041200061BF00000C0C0140FEE70000014A02499B
:1041300000F01AB8554400086809002002E008C8D9
:10414000121F08C1002AFAD170477047002001E011
:1041500001C1121F002AFBD170470000014908600D
:10416000704700006C0900202DE9F04116460F460B
:104170000446002503E03946B047641C6D1C2078D6
:104180000028F8D12846BDE8F08100002DE9F84F5D
:10419000FCF7E0FF0124DFF8DC80DFF8DC90374D2E
:1041A0004FF03E0B0F2600BF58F8241099F800007E
:1041B00091FBF0F0C0B23F2800D93F20C4F180014C
:1041C00089B2C0F13F0087B20A468A463F2339468A
:1041D00010460096FCF7DAFF285DB84201D92F554A
:1041E0000DE03E2801D905F804B00096295D52463D
:1041F0004B1C1046FCF7CAFF285D401C2855641C68
:10420000A4B2802CD0D301244FEA080A99F8000008
:104210005AF8241091FBF0F0C0B23F2800D93F209B
:1042200004F17F018FB2C0F13F001FFA80F83A46D7
:104230003F23414610460096FCF7A8FF285D404505
:1042400002D905F804800DE03E2801D905F804B034
:104250000096295D3A464B1C1046FCF797FF285DF7
:10426000401C2855641CA4B2802CCFD3BDE8F84F65
:10427000FCF772BF703500200C0000207039002060
:104280002DE9FC5F0024FCF765FFDFF88CB0234EBE
:10429000234D0F274FF003090BEB84003178406862
:1042A00090FBF1F0C0B23F2800D93F204FF6FF71DC
:1042B000C0F13F0001EA84011FFA80F88A46B8F194
:1042C0003C0F01D94FF03C080A46CDE900973F2347
:1042D00041461046FCF7BEFF285D404502D905F86F
:1042E000048011E03C2801D93C202855CDE90097F5
:1042F000295D5246CB1C1046FCF7ACFFB178285D17
:10430000C1F10A0108442855641CA4B2402CC3D34F
:10431000BDE8FC5FFCF720BF703500200C000020DA
:10432000703900202DE9F04FC3B00024FCF712FFD4
:10433000344B02A82025610000F8141033F8241033
:10434000C1F3C71200EB4401202A4A7000D94D7016
:10435000641CA4B2802CEED30F228021FDF772F8EA
:104360000024DFF8A4B0294EDFF8A4800F274FF017
:10437000030900BF0BEB84003178406890FBF1F03B
:10438000C0B23F2800D93F204FF6FF71C0F13F0077
:1043900001EA840185B28A46202D01D2202502E05F
:1043A0003C2D00D93C250A46CDE900973F232946FC
:1043B0001046FCF74FFF18F80400A84202D908F88D
:1043C000045015E03C2802D93C2008F80400CDE94F
:1043D000009718F804105246CB1C1046FCF73AFF21
:1043E000B17818F80400C1F10A01084408F8040083
:1043F000641CA4B2402CBDD3FCF7AEFE43B0BDE8B4
:10440000F08F000070290020703500200C00002083
:10441000703900200E48C17871B10189491C89B2F8
:104420000181C82908D3002101814278521CD2B2EF
:104430004270032A00D941704078012803D0022835
:1044400003D0FFF76FBFFFF7A1BEFFF719BF000052
:104450000C00002013B54FF6FF7301226946024895
:10446000FEF7EEFC01201CBD783B0020FDF7CEFDE1
:10447000FFF731FCFEF7DAFFFEF7C2FFFFF7CEF8D9
:10448000FFF790F8FEF78CFFFFF752F8FFF72EF8D2
:1044900008A0FFF74BFEFCF725FC0AA0FFF746FE3D
:1044A000FFF7B4FAFEF7ACFDFCF762FC00F012F87F
:1044B000FCE700005541525420496E6974204F4B6F
:1044C0002E0D0A004F4C454420496E6974204F6BF5
:1044D0002E0D0A002DE9F041204E214F214C30785D
:1044E000012829D1FCF724FCFFF7C0FB1E49002559
:1044F0000870227812B1012A10D01AE0012801D0E8
:1045000050B116E04878401CC0B24870052810D35E
:104510004D70012020700CE04D700AE03A7842B9ED
:1045200038B94878401CC0B24870052801D34D7096
:104530002570FCF71DFC3570387858B9207810B11B
:10454000012803D006E0FFF765FF03E0FFF7C2F99B
:10455000FFF712F9BDE8F041FEF75ABD0000002058
:10456000030000201600002056090020024601200A
:1045700000E05043491EC9B2FBD270472DE9F0411B
:1045800006460F46FCF75AFA041E0D4618BF0120D6
:10459000284320F00040C0F17F6000F1E040C00FF0
:1045A0000ED0301C18BF0120384320F00040C0F16D
:1045B0007F6000F1E040C00F04BF0120FFF7CEFD97
:1045C00020462946BDE8F081000000000000000000
:1045D00000000000000400000000000000000000D7
:1045E00000000000001F00000000000000000000AC
:1045F00000000000001B8000000000000000000020
:1046000000000000003181000000000000000000F8
:1046100000000000003187C0000000000000000022
:104620000000000000610EC00003F7EFE000000092
:10463000000000000063186000010A19200000005B
:1046400000000000004218600001020100000000AC
:104650000000000000C630400001224100000000C0
:10466000000000003BCE60C00001E3C1000000007C
:104670000000000FFF8C618000012241000000005B
:10468000000000FF800FE180000102010000000037
:10469000000003E0000787000001020100000000A5
:1046A0000000070000000E000003870380000000E8
:1046B00000001C0000001C000000000000000000C2
:1046C00000003FC000000C000000000000000000DF
:1046D00000003FF0000006000000000000000000A5
:1046E0000000783C0000070000000000000000000F
:1046F0000000F80E00000180000000000000000033
:104700000000FD0700000180000000000000000024
:104710000001FFE381FF00C0000000000000000076
:104720000001C1F987E7E0C0010000E0400421007A
:104730000003801ECFE0706000803F004FE2120057
:1047400000030007CFF038601FFC200171027F805A
:104750000002000385BE0C3004102201420012004A
:1047600000020000000F86200220420147C0528054
:10477000000700000000E6303FFE4203F44E330025
:10478000000200000000733000007FF805427F80C7
:104790000006800000001B300FF8020045420000B8
:1047A0000007C00000001F300808020155423F000A
:1047B0000002C000000007300808224255422100D4
:1047C0000006C000000000200FF822202542BF0094
:1047D00000036000000000600808421042832100CE
:1047E00000036000000000600808821084423F005F
:1047F0000001B000000000400FF80E030840210047
:1048000000019000000006C0000000000000000051
:104810000001DC0000000EC00000000000000000ED
:104820000000EC0000001D800000000000000000FF
:104830000010670000003B000000000000000000C6
:1048400000383BE00000E60000000000000000002F
:10485000007C1CBC0005DC00000000000000000023
:10486000022C0F3FE57F3800000000000000000030
:1048700007B403C3FFF1E0000000000000000000E7
:1048800007E401FE7D4F80000000001000400000A2
:1048900004F6007FFFFE0000000000100040000052
:1048A00006740FF9BF7F8000C00000101FFF0000DA
:1048B00003367D30001BE000400000100150000076
:1048C0000183E010001878004000009202480000C8
:1048D00000E1C170001F1C00400000910444000072
:1048E0000060FFF0000DE60079DC011098031EEE79
:1048F00000607C70001836004488021043F02244A7
:1049000000C0602000081200445004104020182805
:1049100000C06060001C36004450001000400428B5
:104920000060C020000C7200442000101FFF221005
:104930000079C060000CCE007820001000403C10D0
:10494000001F8060000DCC0000200010004000100F
:1049500000020060000F180001C0007001C000E0FC
:1049600000000040000E7000000000000000000089
:10497000000000C0000CC0000000000000000000AB
:10498000000000C00007C0000000000000000000A0
:10499000000000C0000E0000000000000000000049
:1049A000000000C000060000000000000000000041
:1049B000000000C000040000000000000000000033
:1049C000000000C00004000000030306010406020A
:1049D000050003051F1C1F1E1F1E1F1F1E1F1E1F5D
:1049E000000000000000000001020304060708099F
:1049F00000000000010203040000000000000000AD
:104A00008080808080008000A0A0A00000000000C6
:104A10005050F850F85050002078A07028F0200036
:104A2000C0C81020409818006090A040A89068006E
:104A3000C0408000000000002040808080402000B6
:104A40008040202020408000005020F820500000AE
:104A5000002020F8202000000000000000C040805E
:104A6000000000F8000000000000000000C0C000CE
:104A70000008102040800000708898A8C888700046
:104A80002060202020207000708808304080F800CE
:104A9000708808300888700010305090F8101000AE
:104AA000F880F00808887000304080F08888700036
:104AB000F808102040404000708888708888700096
:104AC000708888780810600000C0C000C0C0000076
:104AD0000000C0C000C04080102040804020100076
:104AE0000000F800F8000000804020102040800006
:104AF000708808102000200070880868A8A870003E
:104B0000708888F888888800F08888F08888F000A5
:104B10007088808080887000E09088888890E000AD
:104B2000F88080F08080F800F88080F0808080003D
:104B30007088808098887800888888F888888800BD
:104B4000E04040404040E0003810101010906000FD
:104B50008890A0C0A0908800808080808080F8002D
:104B600088D8A8A8888888008888C8A898888800D5
:104B70007088888888887000F08888F0808080003D
:104B800070888888A8906800F08888F0A0908800D5
:104B90007088807008887000F82020202020200075
:104BA000888888888888700088888888885020004D
:104BB000888888A8A8A85000888850205088880035
:104BC0008888502020202000F80810204080F8001D
:104BD000E08080808080E00000804020100800009D
:104BE000E02020202020E00020508800000000006D
:104BF00000000000000000F88040200000000000DD
:104C000000007008788878008080B0C88888F0003C
:104C1000000060908090600008086898888878009C
:104C200000007088F8807000205040E04040400054
:104C300000007888887808708080B0C888888800EC
:104C4000400040404040400020006020202020C024
:104C5000808090A0C0A09000C04040404040E00054
:104C60000000D0A8A88888000000B0D090909000E4
:104C700000006090909060000000E09090E08080E4
:104C80000000709090701010000050604040400094
:104C9000000070806010E0004040E0404040600054
:104CA000000090909090700000008888885020004C
:104CB00000008888A8A85000000088502050880074
:104CC00000009090907010600000F8102040F800F4
:104CD0002040408040402000404040404040400054
:104CE00080404020404080006890000000000000AC
:104CF000F8F8F8F8F8F8F8000000000000000000EC
:104D0000183C3C18180018006666240000000000DB
:104D10006C6CFE6CFE6C6C00183E603C067C1800EF
:104D200000C6CC183066C600386C3876DCCC76000D
:104D300018183000000000000C18303030180C003B
:104D400030180C0C0C18300000663CFF3C6600006C
:104D50000018187E18180000000000000018183015
:104D60000000007E00000000000000000018180095
:104D7000060C183060C08000386CC6C6C66C38009F
:104D80001838181818187E007CC6061C3066FE00FD
:104D90007CC6063C06C67C001C3C6CCCFE0C1E008F
:104DA000FEC0C0FC06C67C003860C0FCC6C67C00E5
:104DB000FEC60C18303030007CC6C67CC6C67C00EF
:104DC0007CC6C67E060C7800001818000018180073
:104DD0000018180000181830060C1830180C0600BF
:104DE00000007E00007E00006030180C183060006B
:104DF0007CC60C18180018007CC6DEDEDEC0780009
:104E0000386CC6FEC6C6C600FC66667C6666FC00DC
:104E10003C66C0C0C0663C00F86C6666666CF80014
:104E2000FE6268786862FE00FE6268786860F00082
:104E30003C66C0C0CE663A00C6C6C6FEC6C6C60040
:104E40003C18181818183C001E0C0C0CCCCC780020
:104E5000E6666C786C66E600F06060606266FE0094
:104E6000C6EEFEFED6C6C600C6E6F6DECEC6C60056
:104E70007CC6C6C6C6C67C00FC66667C6060F00068
:104E80007CC6C6C6C6CE7C0EFC66667C6C66E6003A
:104E90003C6630180C663C007E7E5A1818183C00A0
:104EA000C6C6C6C6C6C67C00C6C6C6C6C66C380060
:104EB000C6C6C6D6D6FE6C00C6C66C386CC6C60062
:104EC0006666663C18183C00FEC68C183266FE000A
:104ED0003C30303030303C00C06030180C060200EE
:104EE0003C0C0C0C0C0C3C0010386CC60000000094
:104EF00000000000000000FF30180C00000000005F
:104F00000000780C7CCC7600E0607C666666DC0095
:104F100000007CC6C0C67C001C0C7CCCCCCC7600CF
:104F200000007CC6FEC07C003C6660F86060F0005B
:104F3000000076CCCC7C0CF8E0606C766666E6000F
:104F40001800381818183C00060006060666663C6D
:104F5000E060666C786CE6003818181818183C0089
:104F60000000ECFED6D6D6000000DC666666660061
:104F700000007CC6C6C67C000000DC66667C60F073
:104F8000000076CCCC7C0C1E0000DC766060F0006B
:104F900000007EC07C06FC003030FC3030361C0047
:104FA0000000CCCCCCCC76000000C6C6C66C380065
:104FB0000000C6D6D6FE6C000000C66C386CC60079
:104FC0000000C6C6C67E06FC00007E4C18327E007D
:104FD0000E18187018180E0018181818181818003D
:104FE0007018180E1818700076DC00000000000021
:104FF000FCFCFCFCFCFCFC008040201008040201CE
:10500000205000080000002070090000220B00085A
:105010008054000870090020483600004C41000808
:1050200061164060706040650401070112010210C2
:10503000FF2D3C6643C30163663C4C187818015A47
:105040007E20580A4E8606060C081061FE10600A83
:10505000C6060C1E07030306FC600B060E1626464A
:1050600086FF060606600B1E2040380C0202020472
:10507000F89E0718205EE760600B7E86040C081817
:1050800018103020680B3E6363623C142363633E58
:1050900090192D061DE37E0418E0E80F0F8018C05C
:1050A0003060603060304010C018022B40101A078A
:1050B00017306018C00F8008091B8003800F801113
:1050C00080010219240216F0100D07C01FE0307095
:1050D00020384018401829021210123012201A40AD
:1050E0000213800112021204080916080410083F76
:1050F000F87FF8C0100910C020E0406040601A60DE
:10510000341AC06C14E00FE012F01A70484902190A
:105110004E041870807F29381BE00102180C0360D0
:1051200006600E600C60186038F538096060E06059
:10513000C060FFFC2049020914C015F80FF0081ADE
:1051400008B7121F1F3FC03FE003F07C12783A38C7
:10515000CC59D00717702078403F80153C01C00320
:1051600012061A0C2B1A38AD1D77E07870831A1CC2
:10517000893902000B16300C300818180C3007C0A3
:10518000380A7FF07FF0C030806080C81112C02ED6
:10519000C001C0018002120329023A06021A0C0261
:1051A00001161F0F8010E02070F119021008702006
:1051B00038601CC00F580A07800BC030E0206060C8
:1051C000181A30180A150FC0680B07C01860103085
:1051D00030182018B239B41E0C1C380FD8D31A302E
:1051E0009619901A07DC01643A3802092416012A3C
:1051F000220F1403FF80100F7FFFC01FFFFFC00F9F
:10520000F83FC00F8040045207018029542327E053
:105210004B3FF004231FA0320E32083230324039A7
:105220007719941D1FFF8003902994131FF01B8092
:105230000F180A37067822C01A2F781A1F041A0F7F
:10524000041A074D5A077832101A61101A6F242A6F
:105250007F9C1908321F8A0C941C0183FF1C3FFF9E
:105260008013FF8F8043192F023C041B01FC501256
:10527000FE140CFF871F07F987800719081319E729
:10528000140739E6140773CE1407600C1403811C4D
:1052900014033FFC1403F8785C0180388D0939FC55
:1052A0001A3F0439BD19101A03C12A0704312A070D
:1052B000181AF09022F823FE78239E701A9C101A78
:1052C0005C181A792C3B7BC1FC112DFFFFC01F0419
:1052D0001913320F02240C2925320E293129045AC0
:1052E0001F041A3E641A3F707904298419901A7EAB
:1052F000AF190B32021A049D1816080803800C1807
:1053000003C00FE007C00FC03FC00F80078007BD7C
:10531000292001291A01B129E43964190C29685A94
:10532000069C3208231C601A6DF0139FE014013FA5
:10533000802303FE29043301FF1A312C1A30341A5A
:1053400030B01B707804223C13E01F29921C0F80A0
:105350000F351A0304011B1A071F230FD823101C33
:105360001A61042367DC1A7F101B70305C191C392A
:105370009431136120140181F01C018FF8781280A0
:105380001B01FD041AE10413C7C02B010FB4192837
:105390001A13081A0B9032071B0FF83C4AFC040240
:1053A0001B18291C322C1A26F11BCE0F04131B804C
:1053B000100BDE638005FEE38003FC632401CC7FD9
:1053C0001A8C041BFC7B04124B1B01BC0413B85B3E
:1053D0001C01E85F881ADF0412CF140798DB140E53
:1053E00058E3147B58F314338C9B14070C8F14066A
:1053F00001871C0201078D1A0304021B0119B81A48
:1054000001AC1A47041B37389059041B19B8D48AC9
:10541000B0041A1904231B302A33041A900422D032
:105420002A3104190C233B101A36041A72041A6329
:10543000041A613C1AC05019041C0180787E19348A
:10544000111918011C29A71A078C1B0FF070227064
:105450001BA0789B190869041AEE045AFF049AFCF1
:105460001829041ADF041A7F041A7D3C1A20042923
:10547000D4113260021940A202C4A24A0400000002
:04000005080000ED02
:00000001FF
